{
  "contractName": "Transfer",
  "abi": [
    {
      "inputs": [
        {
          "internalType": "address",
          "name": "_senderAddress",
          "type": "address"
        },
        {
          "internalType": "uint256",
          "name": "_senderInrBalance",
          "type": "uint256"
        }
      ],
      "stateMutability": "nonpayable",
      "type": "constructor"
    },
    {
      "anonymous": false,
      "inputs": [
        {
          "indexed": true,
          "internalType": "address",
          "name": "sender",
          "type": "address"
        },
        {
          "indexed": true,
          "internalType": "address",
          "name": "receiver",
          "type": "address"
        },
        {
          "indexed": false,
          "internalType": "uint256",
          "name": "inrAmount",
          "type": "uint256"
        },
        {
          "indexed": false,
          "internalType": "uint256",
          "name": "usdAmount",
          "type": "uint256"
        },
        {
          "indexed": false,
          "internalType": "uint256",
          "name": "etherAmount",
          "type": "uint256"
        }
      ],
      "name": "TransactionSuccessful",
      "type": "event"
    },
    {
      "anonymous": false,
      "inputs": [
        {
          "indexed": true,
          "internalType": "address",
          "name": "sender",
          "type": "address"
        },
        {
          "indexed": true,
          "internalType": "address",
          "name": "receiver",
          "type": "address"
        },
        {
          "indexed": false,
          "internalType": "uint256",
          "name": "inrAmount",
          "type": "uint256"
        },
        {
          "indexed": false,
          "internalType": "uint256",
          "name": "usdAmount",
          "type": "uint256"
        },
        {
          "indexed": false,
          "internalType": "uint256",
          "name": "etherAmount",
          "type": "uint256"
        }
      ],
      "name": "Transfer",
      "type": "event"
    },
    {
      "inputs": [],
      "name": "exchangeRate",
      "outputs": [
        {
          "internalType": "uint256",
          "name": "",
          "type": "uint256"
        }
      ],
      "stateMutability": "view",
      "type": "function"
    },
    {
      "inputs": [],
      "name": "owner",
      "outputs": [
        {
          "internalType": "address",
          "name": "",
          "type": "address"
        }
      ],
      "stateMutability": "view",
      "type": "function"
    },
    {
      "inputs": [
        {
          "internalType": "address",
          "name": "",
          "type": "address"
        }
      ],
      "name": "users",
      "outputs": [
        {
          "internalType": "address payable",
          "name": "ethAddress",
          "type": "address"
        },
        {
          "internalType": "uint256",
          "name": "inrBalance",
          "type": "uint256"
        },
        {
          "internalType": "uint256",
          "name": "usdBalance",
          "type": "uint256"
        }
      ],
      "stateMutability": "view",
      "type": "function"
    },
    {
      "inputs": [
        {
          "internalType": "address payable",
          "name": "_receiver",
          "type": "address"
        },
        {
          "internalType": "uint256",
          "name": "_inrAmount",
          "type": "uint256"
        }
      ],
      "name": "sendInrToUsd",
      "outputs": [],
      "stateMutability": "payable",
      "type": "function"
    },
    {
      "inputs": [],
      "name": "getSenderDetails",
      "outputs": [
        {
          "internalType": "address",
          "name": "",
          "type": "address"
        },
        {
          "internalType": "uint256",
          "name": "",
          "type": "uint256"
        },
        {
          "internalType": "uint256",
          "name": "",
          "type": "uint256"
        }
      ],
      "stateMutability": "view",
      "type": "function"
    },
    {
      "inputs": [
        {
          "internalType": "address",
          "name": "_receiver",
          "type": "address"
        }
      ],
      "name": "getReceiverDetails",
      "outputs": [
        {
          "internalType": "address",
          "name": "",
          "type": "address"
        },
        {
          "internalType": "uint256",
          "name": "",
          "type": "uint256"
        },
        {
          "internalType": "uint256",
          "name": "",
          "type": "uint256"
        }
      ],
      "stateMutability": "view",
      "type": "function"
    },
    {
      "inputs": [
        {
          "internalType": "address",
          "name": "_receiver",
          "type": "address"
        }
      ],
      "name": "getReceiverBalance",
      "outputs": [
        {
          "internalType": "uint256",
          "name": "",
          "type": "uint256"
        }
      ],
      "stateMutability": "view",
      "type": "function"
    },
    {
      "inputs": [
        {
          "internalType": "address",
          "name": "_receiver",
          "type": "address"
        }
      ],
      "name": "hasReceivedAmount",
      "outputs": [
        {
          "internalType": "bool",
          "name": "",
          "type": "bool"
        }
      ],
      "stateMutability": "view",
      "type": "function"
    }
  ],
  "bytecode": "0x6080604052603c60015534801561001557600080fd5b506040516107803803806107808339810160408190526100349161009b565b600080546001600160a01b031990811633178255604080516060810182526001600160a01b039586168082526020808301968752828401868152918652600290819052929094209051815496169590921694909417815591516001830155519101556100d5565b600080604083850312156100ae57600080fd5b82516001600160a01b03811681146100c557600080fd5b6020939093015192949293505050565b61069c806100e46000396000f3fe60806040526004361061007b5760003560e01c8063924743781161004e578063924743781461014b578063a87430ba146101bf578063f357eca414610206578063feb54ae71461021b57600080fd5b806303b5a2d4146100805780633ba0b9a9146100b55780633e0b2395146100d95780638da5cb5b14610113575b600080fd5b34801561008c57600080fd5b506100a061009b3660046105b9565b61027e565b60405190151581526020015b60405180910390f35b3480156100c157600080fd5b506100cb60015481565b6040519081526020016100ac565b3480156100e557600080fd5b506100cb6100f43660046105b9565b6001600160a01b03166000908152600260208190526040909120015490565b34801561011f57600080fd5b50600054610133906001600160a01b031681565b6040516001600160a01b0390911681526020016100ac565b34801561015757600080fd5b5033600090815260026020818152604092839020835160608101855281546001600160a01b03168082526001830154938201849052919093015492909301829052905b604080516001600160a01b0390941684526020840192909252908201526060016100ac565b3480156101cb57600080fd5b5061019a6101da3660046105b9565b60026020819052600091825260409091208054600182015491909201546001600160a01b039092169183565b6102196102143660046105d6565b6102df565b005b34801561022757600080fd5b5061019a6102363660046105b9565b6001600160a01b038082166000908152600260208181526040928390208351606081018552815490951680865260018201549286018390529201549390920183905293909250565b6001600160a01b038082166000908152600260208181526040808420815160608101835281549096168652600181015492860192909252910154908301819052909190158015906102d8575080516001600160a01b031615155b9392505050565b6000600154826102ef9190610618565b336000908152600260205260409020600101549091508211156103595760405162461bcd60e51b815260206004820152601860248201527f496e73756666696369656e7420494e522062616c616e6365000000000000000060448201526064015b60405180910390fd5b34670de0b6b3a7640000146103b05760405162461bcd60e51b815260206004820152601c60248201527f53656e64203120457468657220706572207472616e73616374696f6e000000006044820152606401610350565b6040516001600160a01b03841690600090670de0b6b3a76400009082818181858883f193505050501580156103e9573d6000803e3d6000fd5b50336000908152600260205260408120600101805484929061040c90849061063a565b90915550503360009081526002602081905260408220018054839290610433908490610653565b90915550506001600160a01b038381166000908152600260205260409020541661048f576001600160a01b0383166000818152600260208190526040822080546001600160a01b03191690931783556001830182905591909101555b6001600160a01b038316600090815260026020819052604082200180548392906104ba908490610653565b90915550506040805183815260208101839052670de0b6b3a76400008183015290516001600160a01b0385169133917fc817d75deaa278e988c41cf549ef38fe195ab65e0e64cd67ba47f0d185690d589181900360600190a36040805183815260208101839052670de0b6b3a76400008183015290516001600160a01b0385169133917f6c233b74870f3b63fedc4389c9b6f714994e879426bdcca0eb5ff6cd1447fc729181900360600190a361059c60405180604001604052806016815260200175151c985b9cd858dd1a5bdb8814dd58d8d95cdcd99d5b60521b81525050565b505050565b50565b6001600160a01b03811681146105a157600080fd5b6000602082840312156105cb57600080fd5b81356102d8816105a4565b600080604083850312156105e957600080fd5b82356105f4816105a4565b946020939093013593505050565b634e487b7160e01b600052601160045260246000fd5b60008261063557634e487b7160e01b600052601260045260246000fd5b500490565b8181038181111561064d5761064d610602565b92915050565b8082018082111561064d5761064d61060256fea2646970667358221220ab27ffa92f355b584286440c48da58a2dd6e5a0405b782b851057c27976f505764736f6c63430008120033",
  "immutableReferences": {},
  "source": "// SPDX-License-Identifier: MIT\npragma solidity ^0.8.0;\n\ncontract Transfer {\n    address public owner;\n    uint public exchangeRate = 60; // 1 USD = 60 INR\n\n    mapping(address => UserInfo) public users;\n\n    struct UserInfo {\n        address payable ethAddress;\n        uint inrBalance;\n        uint usdBalance;\n    }\n\n    event Transfer(address indexed sender, address indexed receiver, uint inrAmount, uint usdAmount, uint etherAmount);\n    event TransactionSuccessful(address indexed sender, address indexed receiver, uint inrAmount, uint usdAmount, uint etherAmount);\n\n    modifier onlyOwner() {\n        require(msg.sender == owner, \"Only owner can call this function\");\n        _;\n    }\n\n    constructor(address _senderAddress, uint _senderInrBalance) {\n        owner = msg.sender;\n        users[_senderAddress] = UserInfo({\n            ethAddress: payable(_senderAddress),\n            inrBalance: _senderInrBalance,\n            usdBalance: 0\n        });\n    }\n\n    function sendInrToUsd(address payable _receiver, uint _inrAmount) external payable {\n        uint usdAmount = _inrAmount / exchangeRate; // Convert INR to USD\n        require(users[msg.sender].inrBalance >= _inrAmount, \"Insufficient INR balance\");\n\n        // Ensure the function is payable\n        require(msg.value == 1 ether, \"Send 1 Ether per transaction\");\n\n        // Send 1 Ether to the receiver\n        _receiver.transfer(1 ether);\n\n        users[msg.sender].inrBalance -= _inrAmount;\n        users[msg.sender].usdBalance += usdAmount;\n\n        // Correct the initialization of the UserInfo struct for the receiver\n        if(users[_receiver].ethAddress == address(0)) {\n            users[_receiver].ethAddress = payable(_receiver);\n            users[_receiver].inrBalance = 0;\n            users[_receiver].usdBalance = 0;\n        }\n\n        users[_receiver].usdBalance += usdAmount;\n\n        emit Transfer(msg.sender, _receiver, _inrAmount, usdAmount, 1 ether);\n        emit TransactionSuccessful(msg.sender, _receiver, _inrAmount, usdAmount, 1 ether);\n        \n        // Console log message\n        consoleLog(\"Transaction Successful\");\n    }\n\n    function consoleLog(string memory _message) private {\n        // Log the message to the console or any other logging mechanism\n        // For demonstration purposes, you can emit an event or use external tools like Chainlink VRF log services\n        // Example: emit ConsoleLog(_message);\n    }\n\n    function getSenderDetails() external view returns (address, uint, uint) {\n        UserInfo memory senderInfo = users[msg.sender];\n        return (senderInfo.ethAddress, senderInfo.inrBalance, senderInfo.usdBalance);\n    }\n\n    function getReceiverDetails(address _receiver) external view returns (address, uint, uint) {\n        UserInfo memory receiverInfo = users[_receiver];\n        return (receiverInfo.ethAddress, receiverInfo.inrBalance, receiverInfo.usdBalance);\n    }\n\n    function getReceiverBalance(address _receiver) external view returns (uint) {\n        return users[_receiver].usdBalance;\n    }\n\n    function hasReceivedAmount(address _receiver) external view returns (bool) {\n        UserInfo memory receiverInfo = users[_receiver];\n        return receiverInfo.usdBalance > 0 && receiverInfo.ethAddress != address(0);\n    }\n}\n",
  "sourcePath": "C:\\Sask Polytech\\Sem-2\\Smartcontract\\Money-transfer\\my-app\\contracts\\transfer.sol",
  "compiler": {
    "name": "solc",
    "version": "0.8.18+commit.87f61d96.Emscripten.clang"
  },
  "schemaVersion": "3.4.16",
  "updatedAt": "2023-12-13T08:22:26.505Z",
  "devdoc": {
    "kind": "dev",
    "methods": {},
    "version": 1
  },
  "userdoc": {
    "kind": "user",
    "methods": {},
    "version": 1
  }
}